{
  "_format": "hh-sol-artifact-1",
  "contractName": "Tournament",
  "sourceName": "contracts/Tournament.sol",
  "abi": [
    {
      "anonymous": false,
      "inputs": [
        {
          "indexed": true,
          "internalType": "uint256",
          "name": "userId",
          "type": "uint256"
        },
        {
          "indexed": false,
          "internalType": "uint256",
          "name": "newScore",
          "type": "uint256"
        }
      ],
      "name": "ScoreUpdated",
      "type": "event"
    },
    {
      "inputs": [
        {
          "internalType": "uint256",
          "name": "_userId",
          "type": "uint256"
        },
        {
          "internalType": "uint256",
          "name": "_score",
          "type": "uint256"
        }
      ],
      "name": "createUserScore",
      "outputs": [],
      "stateMutability": "nonpayable",
      "type": "function"
    },
    {
      "inputs": [
        {
          "internalType": "uint256",
          "name": "_userId",
          "type": "uint256"
        }
      ],
      "name": "getUserScore",
      "outputs": [
        {
          "internalType": "uint256",
          "name": "",
          "type": "uint256"
        }
      ],
      "stateMutability": "view",
      "type": "function"
    },
    {
      "inputs": [
        {
          "internalType": "uint256",
          "name": "_userId",
          "type": "uint256"
        },
        {
          "internalType": "uint256",
          "name": "_newScore",
          "type": "uint256"
        }
      ],
      "name": "updateUserScore",
      "outputs": [],
      "stateMutability": "nonpayable",
      "type": "function"
    },
    {
      "inputs": [
        {
          "internalType": "uint256",
          "name": "",
          "type": "uint256"
        }
      ],
      "name": "userExists",
      "outputs": [
        {
          "internalType": "bool",
          "name": "",
          "type": "bool"
        }
      ],
      "stateMutability": "view",
      "type": "function"
    },
    {
      "inputs": [
        {
          "internalType": "uint256",
          "name": "",
          "type": "uint256"
        }
      ],
      "name": "userScore",
      "outputs": [
        {
          "internalType": "uint256",
          "name": "",
          "type": "uint256"
        }
      ],
      "stateMutability": "view",
      "type": "function"
    }
  ],
  "bytecode": "0x608060405234801561001057600080fd5b50610775806100206000396000f3fe608060405234801561001057600080fd5b50600436106100575760003560e01c80632e2c07341461005c5780636d8bd0f41461008c5780636f93dd91146100a857806394a14647146100d8578063a466fe05146100f4575b600080fd5b61007660048036038101906100719190610445565b610124565b6040516100839190610481565b60405180910390f35b6100a660048036038101906100a1919061049c565b61013c565b005b6100c260048036038101906100bd9190610445565b61023f565b6040516100cf91906104f7565b60405180910390f35b6100f260048036038101906100ed919061049c565b61025f565b005b61010e60048036038101906101099190610445565b61038e565b60405161011b9190610481565b60405180910390f35b60016020528060005260406000206000915090505481565b6000821415801561014d5750600081115b61018c576040517f08c379a00000000000000000000000000000000000000000000000000000000081526004016101839061056f565b60405180910390fd5b60008083815260200190815260200160002060009054906101000a900460ff166101eb576040517f08c379a00000000000000000000000000000000000000000000000000000000081526004016101e2906105db565b60405180910390fd5b806001600084815260200190815260200160002081905550817fefd5a7f141ae02cd40bc84ffe6ebb58811cb61dfd017746842a005c78bfed852826040516102339190610481565b60405180910390a25050565b60006020528060005260406000206000915054906101000a900460ff1681565b600082141580156102705750600081115b6102af576040517f08c379a00000000000000000000000000000000000000000000000000000000081526004016102a690610647565b60405180910390fd5b60008083815260200190815260200160002060009054906101000a900460ff161561030f576040517f08c379a0000000000000000000000000000000000000000000000000000000008152600401610306906106b3565b60405180910390fd5b806001600084815260200190815260200160002081905550600160008084815260200190815260200160002060006101000a81548160ff021916908315150217905550817fefd5a7f141ae02cd40bc84ffe6ebb58811cb61dfd017746842a005c78bfed852826040516103829190610481565b60405180910390a25050565b600080600083815260200190815260200160002060009054906101000a900460ff166103ef576040517f08c379a00000000000000000000000000000000000000000000000000000000081526004016103e69061071f565b60405180910390fd5b60016000838152602001908152602001600020549050919050565b600080fd5b6000819050919050565b6104228161040f565b811461042d57600080fd5b50565b60008135905061043f81610419565b92915050565b60006020828403121561045b5761045a61040a565b5b600061046984828501610430565b91505092915050565b61047b8161040f565b82525050565b60006020820190506104966000830184610472565b92915050565b600080604083850312156104b3576104b261040a565b5b60006104c185828601610430565b92505060206104d285828601610430565b9150509250929050565b60008115159050919050565b6104f1816104dc565b82525050565b600060208201905061050c60008301846104e8565b92915050565b600082825260208201905092915050565b7f5573657253636f726520636f756c64206e6f7420626520757064617465642e00600082015250565b6000610559601f83610512565b915061056482610523565b602082019050919050565b600060208201905081810360008301526105888161054c565b9050919050565b7f5573657220646f6573206e6f742065786973742e000000000000000000000000600082015250565b60006105c5601483610512565b91506105d08261058f565b602082019050919050565b600060208201905081810360008301526105f4816105b8565b9050919050565b7f5573657253636f726520636f756c64206e6f7420626520637265617465642e00600082015250565b6000610631601f83610512565b915061063c826105fb565b602082019050919050565b6000602082019050818103600083015261066081610624565b9050919050565b7f5573657220616c7265616479206578697374732e000000000000000000000000600082015250565b600061069d601483610512565b91506106a882610667565b602082019050919050565b600060208201905081810360008301526106cc81610690565b9050919050565b7f55736572206973206e6f74207265676973746572656420796574000000000000600082015250565b6000610709601a83610512565b9150610714826106d3565b602082019050919050565b60006020820190508181036000830152610738816106fc565b905091905056fea264697066735822122043ae54b8db2d3ec35d18c55e4d2fe1f49a429741a9467d8b72319ff901a3069764736f6c63430008180033",
  "linkReferences": {},
  "deployedLinkReferences": {}
}